{
"network":"tBTC",
"event_type":"address-transactions",
"addresses":{"2MvRC1QLfojwrT2ctkuY6pLeJqojynwWD8L":10000000},
"data":
	{
		"raw":"0100000001775301a4d24e0352cdbfadc4d986f60e2eb78a798f55cb2be7df68aab385d21f00000000fdfd0000483045022100dfcfeacd9745449ea7260e32b9f9e21d14663f570fd0b03fd825a1e7dae22085022043315f17bf0f4e78bb06b32cfa2c031e0ef76f03f8ed0e46cfb330a5350b79710147304402204bca5f115c1d6935e9cb11bb5ef06c7f02930834a9997e21747ee773d8c2744f022056901e06524380fb6f44af8f0a67bee5707557c37e5d219f54bdf2ab629c2fac014c69522102835f700150842ac0f791cabd06cbcbb4714f559ceab71236a5fbeaaca42368882102cdaeb46887fd52627aec9e3bcfbe8a520755e438ce26cadb94d51a15f8ec53242102fcc43d02df8653f32c27d76e26ac77852b2f8e3c5d52126ba018eca63f244b6653aeffffffff02809698000000000017a91422cae2312130353d67b403e533b64fb72fb482b88757ce248f0200000017a9145f76035ebf70d66661104f90efe1c19e49f137a38700000000",
		"hash":"560cb0920f239d2f239f065a8f0a5f5fe3ae 29629c5227dff8493487c188b184",
		"first_seen_at":"2016-05-17T08:47:35+0000",
		"last_seen_at":"2016-05-17T08:47:35+0000",
		"block_height":847767,
		"block_time":"2016-05-17T08:48:46+0000",
		"block_hash":"0000000000000e624b1117ea9ae5701b88f4bf0553d5d29e30922b5d7d6e0ba0",
		"confirmations":76,
		"is_coinbase":false,
		"estimated_value":10000000,
		"total_input_value":11001498599,
		"total_output_value":11001488599,
		"total_fee":10000,
		"estimated_change":10991488599,
		"estimated_change_address":"2N1wyZCv7g4JJwGtJQk79ypQDVdFBX1TktM",
		"high_priority":true,
		"enough_fee":true,
		"contains_dust":false,
	
	"inputs":[
				{
					"index":0,
					"output_hash":"1fd285b3aa68dfe72bcb558f798ab72e0ef686d9c4adbfcd52034ed2a4015377",
					"output_index":0,
					"value":11001498599,
					"sequence":4294967295,
					"address":"2MtW1fxnyskbnQvqyauPchZjrWoE6eZ6S9Q",
					"type":"scripthash",
					"multisig":null,
					"multisig_addresses":null,
					"script_signature":"00483045022100dfcfeacd9745449ea7260e32b9f9e21d14663f570fd0b03fd825a1e7dae22085022043315f17bf0f4e78bb06b32cfa2c031e0ef76f03f8ed0e46cfb33 0a5350b79710147304402204bca5f115c1d6935e9cb11bb5ef06c7f02930834a9997e21747ee773d8c2744f022056901e06524380fb6f44af8f0a67bee5707557c37e5d219f54bdf2ab629c2fac014c69522102835f700150842ac0f791cabd06cbcbb4714f559ceab71236a5fbeaaca42368882102cdaeb46887fd52627aec9e3bcfbe8a520755e438ce26cadb94d51a15f8ec53242102fcc43d02df8653f32c27d76e26ac77852b2f8e3c5d52126ba018eca63f244b6653ae"	
				}
			],

	"outputs":	[
					{
						"index":0,
						"value":10000000,
						"address":"2MvRC1QLfojwrT2ctkuY6pLeJqojynwWD8L",
						"type":"scripthash",
						"multisig":null,
						"multisig_addresses":null,
						"script":"OP_HASH160 22cae2312130353d67b403e533b64fb72fb482b8 OP_EQUAL",
						"script_hex":"a91422cae2312130353d67b403e533b64fb72fb482b887",
						"spent_hash":null,
						"spent_index":0
					},

					{
						"index":1,
						"value":10991488599,
						"address":"2N1wyZCv7g4JJwGtJQk79ypQDVdFBX1TktM",
						"type":"scripthash",
						"multisig":null,
						"multisig_addresses":null,
						"script":"OP_HASH160 5f76035ebf70d66661104f90efe1c19e49f137a3 OP_EQUAL",
						"script_hex":"a9145f76035ebf70d66661104f90efe1c19e49f137a387",
						"spent_hash":null,
						"sp ent_index":0}
				],

	"opt_in_rbf":false,
	"lock_time_timestamp":null,
	"lock_time_block_height":null,
	"size":370
	},
	"retry_count":0
}.