Array
(
    [network] => tBTC
    [event_type] => address-transactions
    [event_type] => address-transactions
    [data] => Array
        (
            [raw] => 010000000118e772a7e294f3a2a8cd272bf7efcc3c7711589f81c5ece0290d783ec0b46b8101000000fdfd0000483045022100ea4e25e14449a26b3ae6297b3795a3d819bb1731768ce65d28633e2349dbcda202203608d35eb5b358060b8b20f0055c89a7aad781d62ea7d513d3394ede2ab9dd950147304402200af9a5d092c1bfca3c29e4dfeaaaf151bf24a0e4b71680cd9fc588a1f23f86a702202365e1c718e5c4ef60d3f244116b28dcee9c111533a7d8b1f5ca3ca8c404129f014c6952210230d22b097c9a11bb918c6af82d91b3b1999fe3e5cf915cb797a71761107c9bd3210267f6027a48f3e5b52d516a047841ff018bebd7978a4ea01a07f47dcd0bfd40fe2102869fe28929dd4d25ec37ede5553dcd7d7de7da7f2a5cd1169d9db3bd286dac2e53aeffffffff0240420f000000000017a914798db0aaeb090fbcd2d8b43372abf1460c349d6887ca4cfa020000000017a914b69860f16da2857e78beae6b49fc9f9eb72789248700000000
            [hash] => 16dee7f878ce2edbd6848e397748cc2e2b7b90b8ddc6068ef9d1f1c401b11773
            [first_seen_at] => 2016-06-30T11:04:31+0000
            [last_seen_at] => 2016-06-30T11:04:31+0000
            [block_height] => 
            [block_time] => 
            [block_hash] => 
            [confirmations] => 0
            [is_coinbase] => 
            [estimated_value] => 1000000
            [total_input_value] => 50961900
            [total_output_value] => 50958090
            [total_fee] => 3810
            [estimated_change] => 49958090
            [estimated_change_address] => 2N9thWes9xC51VC9o3GzMxC7EWHtYHSVsav
            [high_priority] => 1
            [enough_fee] => 
            [contains_dust] => 
            [inputs] => Array
                (
                    [0] => Array
                        (
                            [index] => 0
                            [output_hash] => 816bb4c03e780d29e0ecc5819f5811773ccceff72b27cda8a2f394e2a772e718
                            [output_index] => 1
                            [value] => 50961900
                            [address] => 2MwdeNwj2mYt5V9MKUVssKAYqKuvrtLmhtH
                            [type] => scripthash
                            [multisig] => 
                            [multisig_addresses] => 
                            [script_signature] => 00483045022100ea4e25e14449a26b3ae6297b3795a3d819bb1731768ce65d28633e2349dbcda202203608d35eb5b358060b8b20f0055c89a7aad781d62ea7d513d3394ede2ab9dd950147304402200af9a5d092c1bfca3c29e4dfeaaaf151bf24a0e4b71680cd9fc588a1f23f86a702202365e1c718e5c4ef60d3f244116b28dcee9c111533a7d8b1f5ca3ca8c404129f014c6952210230d22b097c9a11bb918c6af82d91b3b1999fe3e5cf915cb797a71761107c9bd3210267f6027a48f3e5b52d516a047841ff018bebd7978a4ea01a07f47dcd0bfd40fe2102869fe28929dd4d25ec37ede5553dcd7d7de7da7f2a5cd1169d9db3bd286dac2e53ae
                        )

                )

            [outputs] => Array
                (
                    [0] => Array
                        (
                            [index] => 0
                            [value] => 1000000
                            [address] => 2N4KwVJASsk9V3X96TmscVKo8V7ZwAcMm7e
                            [type] => scripthash
                            [multisig] => 
                            [multisig_addresses] => 
                            [script] => OP_HASH160 798db0aaeb090fbcd2d8b43372abf1460c349d68 OP_EQUAL
                            [script_hex] => a914798db0aaeb090fbcd2d8b43372abf1460c349d6887
                            [spent_hash] => 
                            [spent_index] => 0
                        )

                    [1] => Array
                        (
                            [index] => 1
                            [value] => 49958090
                            [address] => 2N9thWes9xC51VC9o3GzMxC7EWHtYHSVsav
                            [type] => scripthash
                            [multisig] => 
                            [multisig_addresses] => 
                            [script] => OP_HASH160 b69860f16da2857e78beae6b49fc9f9eb7278924 OP_EQUAL
                            [script_hex] => a914b69860f16da2857e78beae6b49fc9f9eb727892487
                            [spent_hash] => 
                            [spent_index] => 0
                        )

                )

        )

    [retry_count] => 4
    [addresses] => Array
        (
            [2N4KwVJASsk9V3X96TmscVKo8V7ZwAcMm7e] => 1000000
        )

)
